:0600000002006B02106912
:03000B00021316C7
:030013000210BC1C
:01001B0032B2
:03002300020FD1F8
:03002B000215AF0C
:01003300329A
:03003B0002110FA0
:03004300020F9217
:01004B003282
:0300530002101D7B
:01005B003272
:030063000215ADD6
:0300660002116321
:02006900E4733E
:0D006B0075812D121823E5826003020066E6
:10007800792FE94400601B7A01901AC5789975A018
:1000880001E493F2A308B8000205A0D9F4DAF275E6
:02009800A0FFC7
:06009A00E478FFF6D8FD3A
:1000A0007800E84400600A790A75A001E4F309D8F1
:1000B000FC788FE84400600C790190010AE4F0A319
:0400C000D8FCD9FA95
:0E00C4007808E4F608F608F608F6780C7600E0
:0200D200C20367
:0200D400C20464
:0300D600020066BF
:1000DA007E007F00C3EE940CEF648094805027EE7C
:1000EA002414F582EF3419F583E493FD90015374D7
:1000FA0002F08D82C007C00612119AD006D0070EF0
:10010A00BE00D10F80CE7582001208EB0202B67FC4
:10011A0000BF0C005032EF249BFDE43401FEEF9047
:10012A00191493F582C007C006C005121251AC8299
:10013A00D005D006D007ECB4010092008D828E83E0
:10014A00A200E433F00F80C99001B37408F0900163
:10015A009BE060079001B3E4F0802890019CE06086
:10016A00089001B37404F0801A90019DE060089031
:10017A0001B37406F0800C90019EE060069001B312
:10018A007402F090019BE0F510600E90019EE06011
:10019A00089001B37401F08038E510600E90019D5B
:1001AA00E060089001B37407F0802690019CE0F5A6
:1001BA0010600E90019EE060089001B37403F08015
:1001CA0010E510600C90019DE060069001B3740583
:1001DA00F09001B3E0FF9001B4E0FEEFB5060280B3
:1001EA00138F821203A09001B57401F09001B3E05D
:1001FA009001B4F07E047F00C3EE940CEF64809407
:10020A0080400302029FEE24A7FCEF3401FD8C829A
:10021A008D83E0FBEE249BF9EF3401FA89828A830D
:10022A00E0F8EBB5000280659001B57401F08982AF
:10023A008A83E08C828D83F089828A83E06028EE4B
:10024A002EFCEF33FDEC2420F582ED3419F583E41E
:10025A0093FCA3E493FD8C828D83C007C00612032E
:10026A0034D006D0078026EE2EFCEF33FDEC242096
:10027A00F582ED3419F583E493FCA3E493FD8C82B3
:10028A008D83C007C006120367D006D0070EBE00D2
:10029A00010F0202029001B5E060081202F7900114
:0C02AA00B5E4F0900005E4F5F00213D379
:1002B600120F4E120F78120F6775DD0075D3007599
:1002C600D500900150E4F09001517408F0E4A3F0D9
:1002D60090010A75F00012117290010D7480F09071
:1002E600010EF090010FF0900110F090010CC4F097
:1002F600227F00BF0800502F8F057E0074402DFD21
:10030600E43EFEED2440FDEE3400FEEF240AFAE45E
:100316003401FB7C008A828B838CF0121629FA8DBD
:10032600828E83F00F80CC75D30853D2FC22AF8324
:10033600E582900112F0EFA3F090010AE0FEA3E03F
:10034600FF900112E0FCA3E0FDEC4206ED420790AF
:10035600010AEEF0EFA3F09001B8E060030202F7A5
:1003660022AF83E582900114F0EFA3F090010AE03A
:10037600FEA3E0FF900114E0FCA3E0FDECF4FCED2D
:10038600F4FDEC5206ED520790010AEEF0EFA3F0F1
:100396009001B8E060030202F722E582900116F0B0
:1003A600E090010CF09001B8E060030202F72290A1
:1003B600010C7408F09001B8E060030202F722E530
:1003C6008290011AF0E0FF7E00C007C0069000FF91
:1003D60012150FAE82AF831581158174C8C0E0E493
:1003E600C0E08E828F83121761AE821581158174EB
:1003F600802E90010DF0900117E0FF7E00C007C02F
:10040600069000FF12150FAE82AF83158115817419
:10041600C8C0E0E4C0E08E828F83121761AE8215F9
:1004260081158174802E90010EF0900118E0FF7EF8
:1004360000C007C0069000FF12150FAE82AF8315ED
:1004460081158174C8C0E0E4C0E08E828F831217E4
:1004560061AE821581158174802E90010FF0900196
:1004660019E0FF7E00C007C0069000FF12150FAE10
:1004760082AF831581158174C8C0E0E4C0E08E8226
:100486008F83121761AE821581158174802E9001BB
:1004960010F09001B8E060030202F722AF83E58214
:1004A60090011FF0EFA3F090011FE0FEA3E0FF8E86
:1004B600828F83C007C0061203349001B6E0FCA306
:1004C600E0FD7B007A008C828D838BF0EA1213D3D9
:1004D600D006D0078E828F8312036790011BE0FC43
:1004E600A3E0FDA3E0FEA3E08C828D838EF01213C1
:1004F600D39001B6E0FEA3E0FF7D007C008E828FE4
:10050600838DF0EC0213D3AF83E582900127F0EFE1
:10051600A3F0900127E0FEA3E0FF900121E0F5158E
:10052600A3E0F516A3E0F517A3E0F518900125E082
:10053600F8A3E0F9E4F511F512F513F5148802892C
:10054600037C007D00C3E5119AE5129BE5139CE54B
:10055600149D400302061E8E828F83C007C006C00C
:1005660001C000120334D000D001D006D00790019C
:10057600B8E07013C007C006C001C0001202F7D071
:1005860000D001D006D007C000C0019001B6E0F847
:10059600A3E0F97C007D00888289838CF0EDC0079A
:1005A600C006C001C0001213D3D000D001D006D0BF
:1005B600078E828F83C007C006C001C00012036782
:1005C600D000D001D006D007D001D0009001B8E00D
:1005D6007013C007C006C001C0001202F7D000D0D9
:1005E60001D006D0078515828516838517F0E51894
:1005F600C007C006C001C0001213D3D000D001D07E
:1006060006D0070511E4B5110C0512B5120705133E
:10061600B5130205140205439001B6E0FEA3E0FF00
:100626007D007C008E828F838DF0EC0213D3AF8326
:10063600E58290012DF0EFA3F090012DE0FEA3E0FE
:10064600FF8E828F83C007C006120334D006D00700
:100656009001B8E0700BC007C0061202F7D006D0B2
:1006660007900129E0FAA3E0FBA3E0FCA3E08A825D
:100676008B838CF0C007C0061213D3D006D0078E2A
:10068600828F831203679001B8E070031202F7901D
:1006960001B6E0FEA3E0FF7D007C008E828F838D95
:1006A600F0EC0213D3E582900133F0E0F5821203F9
:1006B600A09001B8E070031202F79001B6E0FEA325
:1006C600E0FF7D007C008E828F838DF0EC1213D3C9
:1006D6001203B59001B8E070031202F790012FE003
:1006E600FCA3E0FDA3E0FEA3E08C828D838EF012D6
:1006F60013D39001B6E0FEA3E0FF7D007C008E825E
:100706008F838DF0EC0213D3E58290013AF0E0FF7F
:10071600900134E0FBA3E0FCA3E0FDA3E0FE900122
:1007260038E0F51DA3E0F51EE4F519F51AF51BF5FD
:100736001CC007A81DA91E7A007F00C3E51998E50D
:100746001A99E51B9AE51C9FD007400302080C8FF7
:1007560082C007C006C005C004C0031203A0D003B0
:10076600D004D005D006D0079001B8E07017C007B6
:10077600C006C005C004C0031202F7D003D004D0DF
:1007860005D006D007C0079001B6E0F9A3E0F87AD5
:10079600007F00898288838AF0EFC007C006C00503
:1007A600C004C0031213D31203B5D003D004D0057E
:1007B600D006D007D0079001B8E07017C007C00672
:1007C600C005C004C0031202F7D003D004D005D080
:1007D60006D0078B828C838DF0EEC007C006C0055D
:1007E600C004C0031213D3D003D004D005D006D062
:1007F600070519E4B5190C051AB51A07051BB51B2B
:1008060002051C0207379001B6E0FEA3E0FF7D005B
:100816007C008E828F838DF0EC0213D3E5829001EB
:100826003FF0E0F5821203A09001B8E070031202D7
:10083600F790013BE0FCA3E0FDA3E0FEA3E08C8281
:100846008D838EF01213D31203B59001B8E07003B6
:100856001202F79001B6E0FEA3E0FF7D007C008E59
:10086600828F838DF0EC0213D3E582900147F0E08E
:10087600FF900140E0FE900141E0FD900142E0FC66
:10088600900117EEF0900118EDF0900119ECF08F41
:10089600821203C59001B8E070031202F79001437B
:1008A600E0FCA3E0FDA3E0FEA3E08C828D838EF046
:1008B6001213D3900117E4F0900118F0900119F08B
:1008C6007582001203C59001B8E070031202F7901A
:1008D60001B6E0FEA3E0FF7D007C008E828F838D53
:1008E600F0EC0213D3E582900148F0E09001B8F0F5
:0108F60022DF
:1008F80075D30074FC55D24402F5D2222290014FE0
:10090800E5DBF0E0FFBF08028003020DAC900007B2
:10091800E0FE7F00900006E07C004207EC42069073
:100928000149EFF0EEA3F090014FE4F0900001E0F0
:10093800FD90014BF09001B9E4F0900000E05460A4
:100948006033900000E0FC5304607B00BC2005BBD2
:100958000002800FBC4015BB001290014F74FFF0DD
:10096800020DB290014F74FFF0020DB290014F7466
:10097800FFF0020DB2EDFC24F45003020DA4EC24A8
:100988000A83F582EC241083F583E473777AA44E06
:10099800A43AACA4496EB2B20D0B0D0C0D0B090DA7
:1009A8000B0B0D0D900003E0FDBD01028013BD028D
:1009B80002802ABD03028041BD2203020A71020A95
:1009C8009A90014D7438F07419A3F090194AE49381
:1009D800FC740193FD90014FECF0020AA090014DC8
:1009E800744CF07419A3F09019CDE493FC7401933E
:1009F800FD90014FECF0020AA0900002E0701C90FC
:100A0800014D74CFF07419A3F09019D3E493FC74DA
:100A18000193FD90014FECF0020AA0900002E0FD66
:100A2800BD011B90014D74FDF07419A3F0901A23B9
:100A3800E493FC740193FD90014FECF0805A900010
:100A480002E0FDBD021B90014D74D5F07419A3F0AE
:100A58009019FBE493FC740193FD90014FECF08036
:100A68003790014F74FFF0802F900002E0701B90C8
:100A7800014D7477F07419A3F0901975E493FC7420
:100A88000193FD90014FECF0800E90014F74FFF040
:100A9800800690014F74FFF090014FE0FDBDFF0309
:100AA800020DB28D047D00C3EC9FED9E50089001AD
:100AB80049ECF0EDA3F0900149E0FEA3E0FF8E04BD
:100AC8008F05C3EC9440ED9400920140067C407D74
:100AD8000080048E048F0590014FECF07F00C3EF77
:100AE8009C501F8F057E0090014DE0FAA3E0FBEFBC
:100AF8002AF582E43BF583E493FB8D828E83F00F25
:100B080080DC8C067F00900149E0FBA3E0FDEBC38D
:100B18009EFBED9FFD900149EBF0EDA3F090014D98
:100B2800E0FEA3E0FF90014DEC2EF0E43FA3F002BD
:100B38000DB2900002E0FF900149F0E4A3F0020D2D
:100B4800B290014CE0900000F0900149E0FEA3E073
:100B5800FFC3EE9401EF94005003020DB290014FD1
:100B68007401F0020DB2900002E0FF90014CF00217
:100B78000DB2900000E0541F7037900003E0FE7F34
:100B880000900002E0FD7C004207EC4206BF01181D
:100B9800BE0015901953E493FF30E503020DB2909F
:100BA800014F74FFF0020DB290014F74FFF0020D77
:100BB800B2900000E0FF53071F7E00BF0205BE0091
:100BC8000280028078900004E0FFBF0102805FBFCE
:100BD80002028049BF03028033BF0402801DBF8127
:100BE800028040BF8202802ABF83028014BF8444EF
:100BF80074BC55DE4402F5DE020DB253DE73020DFD
:100C0800B274BC55D64402F5D6020DB253D673025F
:100C18000DB274BC55D44402F5D4020DB253D4734A
:100C2800020DB274BC55D24402F5D2020DB253D2B1
:100C380073020DB290014F74FFF0020DB290014F94
:100C480074FFF0020DB2900000E0541F703790005E
:100C580003E0FE7F00900002E0FD7C004207EC42CA
:100C680006BF0118BE0015901953E493FF30E50341
:100C7800020DB290014F74FFF0020DB290014F7453
:100C8800FFF0020DB2900000E0FF53071F7E00BF87
:100C98000205BE00028003020D6F900003E0FE7F94
:100CA80000900002E0FD7C004207EC4206EF4E6037
:100CB80003020D67900005E0FE7F00900004E0FD50
:100CC8007C004207EC4206BF0106BE0003020D5736
:100CD800BF0205BE00028063BF0305BE0002804755
:100CE800BF0405BE00028029BF8105BE00028055F1
:100CF800BF8205BE00028039BF8305BE0002801C8A
:100D0800BF8454BE005174BF55DE4403F5DE020DA6
:100D1800B2747F55DE440CF5DE020DB274BF55D6B1
:100D28004403F5D6020DB2747F55D6440CF5D6802F
:100D38007974BF55D44403F5D4806F747F55D44477
:100D48000CF5D4806574BF55D24403F5D2805B742A
:100D58007F55D2440CF5D290014F74FFF0804B9030
:100D6800014F74FFF0804390014F74FFF0803B9077
:100D78000000E4F0900001F0900149E0FEA3E0FFDC
:100D88008E048F05C3EC9402ED9400400890014F47
:100D98007402F0801590014FEEF0800E90014F74B0
:100DA800FFF0800690014F74FFF090014FE0FFBF05
:100DB800FF0A90014B74FFF075DCCF22EF24BF408F
:100DC800068FDD75DCC02275DD0075DCC022900160
:100DD8004BE0FFBF0503020E63BF06028003020E4D
:100DE80077900149E0FEA3E0FF8E048F05C3EC94E1
:100DF80040ED9400920240067C407D0080048E0401
:100E08008F057F00C3EF9C501F8F057E0090014D1A
:100E1800E0FAA3E0FBEF2AF582E43BF583E493FBD9
:100E28008D828E83F00F80DC8C067F00900149E074
:100E3800FBA3E0FDEBC39EFBED9FFD900149EBF0AA
:100E4800EDA3F090014DE0FEA3E0FF90014DEC2EE4
:100E5800F0E43FA3F08CDD63DC4022E5E35480FF3F
:100E6800900149E0FDA3E0ED4FF5E375DC02227542
:100E7800DD0075DC022275DD0043DC022220D90387
:100E8800020F2FE5D9540FFFADD95305307E00BDB1
:100E98000005BE0002801CBD1005BE00028037BDE3
:100EA8002005BE00028045BD3006BE0003020F14B7
:100EB800020F2DEFFE24FB5003020F2DEE2E900E95
:100EC800CA738008800B805D805B8059120E7E801B
:100ED80054120904804FEFFE24FB4049EE2E900E79
:100EE800EA738041803F803D803B8039EFFE24FBE0
:100EF8004033EE2E900F00738008800B80278025EA
:100F08008023120DD6801E1208F88019EFFE24FBEC
:100F18004013EE2E900F207380088009800780050B
:100F28008003120905C2D930D80F75DC0275D212B8
:100F380075E300C2DAC2D9C2D810DA0122E5DA2094
:100F4800E20375D8FF2275E20053E27F43E2297578
:100F5800E30053E2BF53D1FB75D18043D101224353
:100F6800E10443E10243E10143D81FD2EAD2AF22B0
:100F78007E407F008EEE8FEF75D2127E007F008E4E
:0A0F8800EC8FED75EAC075DC022263
:100F9200C021C0E0C0F0C082C083C007C006C00547
:100FA200C004C003C002C001C000C0D075D000128E
:100FB2000E85D0D0D000D001D002D003D004D0050D
:100FC200D006D007D083D082D0F0D0E0D02132C07A
:100FD20021C0E0C0F0C082C083C007C006C005C007
:100FE20004C003C002C001C000C0D075D000309858
:100FF20005121645C298309905121685C299D0D0AD
:10100200D000D001D002D003D004D005D006D00742
:10101200D083D082D0F0D0E0D02132C021C0E0C055
:10102200F0C082C083C007C006C005C004C003C0B0
:1010320002C001C000C0D075D00030C0051216D366
:10104200C2C030C105121713C2C1D0D0D000D00126
:10105200D002D003D004D005D006D007D083D082EE
:10106200D0F0D0E0D02132C021C0E0C0F0C082C0B8
:1010720083C007C006C005C004C003C002C001C0CF
:1010820000C0D075D0009001BCE0FEA3E0FFC00715
:10109200C0068E828F83120069D006D007D0D0D0CE
:1010A20000D001D002D003D004D005D006D007D0A2
:1010B20083D082D0F0D0E0D02132C021C0E0C0F095
:1010C200C082C083C007C006C005C004C003C002FE
:1010D200C001C000C0D075D0009001BEE0FEA3E008
:1010E200FFC007C0068E828F83120069D006D00728
:1010F200D0D0D000D001D002D003D004D005D00689
:10110200D007D083D082D0F0D0E0D02132C021C02D
:10111200E0C0F0C082C083C007C006C005C004C0E2
:1011220003C002C001C000C0D075D0009001BAE077
:10113200FEA3E04E600E9001BAE0F8A3E0F58388CA
:1011420082120069D0D0D000D001D002D003D004E6
:10115200D005D006D007D083D082D0F0D0E0D02105
:10116200321214BF1200DA12011980FB75820022BA
:10117200AC82AD83900151E0FEA3E0FFBE000360AC
:10118200121F0F900150E08C828D831214F4A3DEA3
:10119200FADFF88C828D8322E582FF901A7593FE26
:1011A200EF901A4D93FF700122900153E0FD701BE6
:1011B200BF0209EEF4FC5292EC529322BF04028069
:1011C2000122EEF4FC5296EC529722BD0214BF02A9
:1011D20007EE4292EE429322BF0439EE4296EE426D
:1011E2009722BD0116BF0208EEF45292EE429322FC
:1011F200BF0421EEF45296EE429722BD0316BF02BF
:1012020008EE4292EEF4529322BF0408EE4296EEAA
:10121200F4FE529722AF82BF0102800FBF0202800A
:1012220013BF03028017BF0425801BE5C620E21E00
:10123200539DFB22E5C620E315539DF722E5C630F8
:10124200E20C539DFB22E5C630E303539DF722E5F2
:1012520082FF901A2593FEEF901A7593FDEF901A74
:101262004D93FF7003F58222EE600D8E82C007C09F
:1012720005121217D005D0077E00BF0202800ABFF6
:1012820003028009BF040C8008AE908006AEA080E5
:1012920002AEB0ED5E60047582012275820022E525
:1012A20082FF901A2593FEEF901A7593FDEF901A24
:1012B2004D93FFEE600D8E82C007C005121217D04B
:1012C20005D007A2AFE433FEC2AFBF0202800ABF5D
:1012D20003028017BF04368024900154E07007EDAA
:1012E200F4FF52908027ED42908022900154E070EA
:1012F20007EDF4FF52A08015ED42A080109001543A
:10130200E07007EDF4FF52B08003ED42B0EE6002F0
:03131200D2AF2235
:10131600C0D075D00808B8000D09B900090ABA008E
:10132600050BBB00010CD0D032A2AFC2AFA808A9F2
:1013360009AA0AAB0BAC8A8588F092AF30F5127415
:10134600012C600D08B8000909B900050ABA0001A8
:101356000BC3EC9406FCECC313FC75F07DE8A4F813
:10136600ADF075F07DE9A42DF9E435F0FD75F07D5D
:10137600EAA42DFAE435F0FD75F07DEBA42DFB7D96
:1013860000EC28F582E93DF583EA3DF5F0EB3D22D8
:10139600A2AFC2AFA808A909AA0AAB0BAC0C92AFC0
:1013A60075F020E8A4A8F075F020E9A428F582A835
:1013B600F075F020EAA428F583A8F075F020EBA4D8
:1013C60028F9A8F075F020ECA42889F0228582225D
:1013D60085832385F024F52512132F8582268583A0
:1013E6002785F028F529E522452345244525700162
:1013F60022A822A923AA24AB2585262A85272B8560
:10140600282C85292DE8494A4B60DBC003C002C061
:1014160001C00012132FAC82AD83AEF0FFD000D016
:1014260001D002D003ECC3952AFCED952BFDEE9579
:101436002CFEEF952DFFC3EC94E8ED9403EE94009B
:10144600EF940040A118B8FF0919B9FF051ABAFFB1
:10145600011B882289238A248B2574E8252AF52AEC
:101466007403352BF52BE4352CF52CE4352DF52DB1
:10147600852A26852B27852C28852D298087AE82CF
:10148600AF83C374019EE49F40022200C374029E90
:10149600FE74009FFF00BE0005BF00020022000090
:1014A6000000000000000000000000000000000E28
:1014B600BE00EB0FBF00ED002275A15575A1AA7401
:1014C600F855B94406F5B975A1009013881214842D
:1014D600759E5D759D0074F055894402F58953C962
:0D14E600EF758C06C28DD2A9D28CD2AF2238
:1014F40020F71130F6138883A88220F509F6A88313
:101504007583002280FEF280F5F022C01F85811FC2
:10151400C082C083E5812405F581AF1F0FE51F2438
:1015240003F8A607087600087640E51F24FCFD7E34
:10153400007F40E51F2406F9A81F088604E51F2440
:10154400FCF886038CF0EBA4F709A7F0E51F24064A
:1015540004F98704A81F08860374012DFAE43EFEEB
:101564008A828E838FF01216298BF0A4FBE51F2448
:1015740003F8740126FDE40836FE0886078D828E82
:10158400838FF0121629FDE51F24FCF886078DF0E1
:10159400EFA42B2CF7E51F2406F987060987078E8D
:0A15A400828F83851F81D01F223241
:0115AF003209
:1015B10022AF82BF0200503EEF75F002A424BCFDB1
:1015C100740135F0FE900156E0FBA3E0FC8D828EA4
:1015D10083EBF0ECA3F0BF00028005BF0118800B84
:1015E100900158E024FF9288D2A822900158E0FF90
:1015F10024FF928AD2AA22AF82BF02005028BF00E4
:10160100028005BF01088004C2A88002C2AAEF754A
:10161100F002A424BCFE740135F0FF8E828F837426
:07162100B1F07415A3F022E3
:1016290020F71430F6148883A88220F507E6A883EA
:0C16390075830022E280F7E49322E02297
:101645009001C0E0FF7E000FBF00010E7410C0E0E6
:10165500E4C0E08F828E83121827AE821581158132
:101665009001C1E0FFEEB50701229001C0E02459C9
:10167500F582E43401F583E599F09001C0EEF0229E
:1016850030034A9001C2E0FF9001C3E0FEEFB506CA
:1016950005A203C203229001C3E02469F582E43464
:1016A50001F583E0F5999001C3E0FF7E000FBF00CF
:1016B500010E7410C0E0E4C0E08F828E83121827FB
:0E16C500AE82AF83158115819001C3EEF02235
:1016D3009001C4E0FF7E000FBF00010E7410C0E054
:1016E300E4C0E08F828E83121827AE8215811581A4
:1016F3009001C5E0FFEEB50701229001C4E0247913
:10170300F582E43401F583E5C1F09001C4EEF022E3
:1017130030044A9001C6E0FF9001C7E0FEEFB50632
:1017230005A204C204229001C7E02489F582E434AF
:1017330001F583E0F5C19001C7E0FF7E000FBF0014
:10174300010E7410C0E0E4C0E08F828E831218276C
:0E175300AE82AF83158115819001C7EEF022A2
:10176100C01F85811FAE82E583FF33E433FD60092D
:10177100C3E49EFBE49FFC80048E038F04E51F24D9
:10178100FCF808E633E433FF600FE51F24FCF8C3DF
:10179100E496FA08E496FE800AE51F24FCF8860226
:1017A100088606C007C005C002C0068B828C831262
:1017B10017D7AC82AE8315811581D005D007EF6DA7
:1017C100600DC3E49CFDE49EFF8D828F8380048CB9
:1017D100828E83D01F22C01F85811FAE82AF837C82
:1017E100007D007B10EF235401FAEE2EFEEF33FF54
:1017F100EC2CFCED33FDEA6003430401E51F24FCFE
:10180100F8C3EC96ED08964010E51F24FCF8ECC3F4
:1018110096FCED0896FD430601DBCA8E828F83D0CC
:101821001F2275820022C01F85811FAE82E583FFC2
:1018310033E433FD6009C3E49EFBE49FFC80048E26
:10184100038F04E51F24FCF808E630E70FE51F24A9
:10185100FCF8C3E496FE08E496FF800AE51F24FC29
:10186100F88606088607C005C006C0078B828C83F0
:10187100121895AE82AF8315811581D005ED600DEB
:10188100C3E49EFCE49FFD8C828D8380048E828F55
:1018910083D01F22C01F85811FAE82AF837D007C54
:1018A10000E51F24FCF808E6235401FB702FE51F17
:1018B10024FCF8E626F608E633F6E51F24FCF8C317
:1018C100EE96EF08965011E51F24FCF808E618C3C0
:1018D10013C613C608F680050C8C0580C4E51F24C9
:1018E100FCF8C3EE96EF0896400DE51F24FCF8EED8
:1018F100C396FEEF0896FFE51F24FCF808E618C31F
:1019010013C613C608F68D041DEC70D18E828F8329
:03191100D01F22C2
:10191400200E0F100A0B1F1E1123222100000000AD
:101924000000000004000200080001001000200074
:0419340000010002AC
:1019380012010002000000400D0F92000001010298
:10194800000112000902290001010080FA090400BF
:1019580000020300000009211101000122560007BE
:1019680005020340000107058103400001560005F8
:10197800010905A1011500250135004501750195ED
:1019880010050919012910810205012507463B01A7
:101998007504950165140939814265009501810135
:1019A80026FF0046FF00093009310932093575085C
:1019B800950481020600FF0920950181020A21266B
:1019C80095089102C0290004030904040026034372
:1019D800004800350035003200200054004100491D
:1019E800004B004F00200048004900540042004FBF
:1019F8000058002600260343004800350035003211
:101A08000020005400410049004B004F00200048CE
:0D1A1800004900540042004F005800260015
:101A250000000000000000000000000000000001B0
:101A3500000000000000000000000000000003049A
:101A45000000020000000000010101010101010187
:101A55000000020202020202020200000303030365
:101A65000303030300000404040404040404000045
:101A75000102040810204080000001020408102023
:101A8500408000000102040810204080000001028F
:101A95000408102040800000FFFFFFFFFFFFFFFF4D
:101AA500FFFFFF00FFFF0102FFFFFFFFFFFFFFFF3B
:101AB500FFFFFFFFFFFFFFFF03FFFFFFFFFFFFFF2D
:101AC500631100000000000000000000000000009D
:0D1AD50000000000000000000000080800F4
:031AE2006400019C
:011AE5000000
:021AE6000000FE
:041AE800B115B1156E
:041AEC0000000000F6
:041AF00000000000F2
:00000001FF
